:10F8000031404002B240805A2001D242FF105700DE
:10F81000D242FE105600C2432600F240F7002200FA
:10F82000F042FF07F0420108F042FA07C24323000A
:10F83000F042F307C2432E00F2432A00C2432900DC
:10F8400044437242034344930B24F2D0410021000D
:10F85000B0128EF8F2C041002100B0128EF8F33FD2
:10F86000F2C041002100EF3FB01282F8F2B2200056
:10F8700003205493042C5453F2C223000013444336
:10F88000FB3F36404C1D16830343FD23304135407A
:0AF89000102715830343FD233041C8
:02FFE40068F8BB
:02FFFE0000F809
:00F8040103
:00000001FF
