:10F8000031404002B240805A2001D242FF105700DE
:10F81000D242FE105600C2432600F240FC002200F5
:10F82000F0400300FD07F0400300FD07F040030037
:10F83000F507F0400300EE07C2432300C2432E0049
:10F84000F2432A00C243290072401800B01276F831
:10F85000D2B323000620E2B323000820C2432300D2
:10F860000013E2D22100D2C323000013E2C2210020
:10F87000E2C32300001334404C1D14830343FD23D3
:02F88000304115
:02FFE4004CF8D7
:02FFFE0000F809
:00F8040103
:00000001FF
